:020000040000FA
:1000000010F4FF1FF9020000C70200000303000004
:1000100000000000000000000000000000000000E0
:1000200000000000000000000000000005030000C8
:1000300000000000000000000703000009030000AA
:100040000B0300000B0300000B0300000B03000078
:100050000B0300000B0300000B0300004B0B000020
:100060000B0300000B0300000B0300000B03000058
:10007000EF100000071100000B1100000B0300003F
:100080000B0300000B0300000B0300000B03000038
:100090000B0300000B0300000B0300000B03000028
:1000A0000B0300000B0300000B0300000B03000018
:1000B000D11100000B0300000B0300000B03000034
:1000C0000348854601F014F900480047E50A00009E
:1000D00010F4FF1F00207C4908607C48806B4915A4
:1000E00008437A4988630120000478494031486018
:1000F0007748806877490840754988600846C06835
:10010000744908407249C8608920734908702420E6
:10011000724948709A2008700846C078C006C00E20
:10012000C870032008710020487100BF6B488079B7
:10013000102108400028F9D100BF684880790C21BF
:1001400008400828F9D140206449487100BF63483D
:1001500080790C2108400828F9D100BF5F488079D8
:10016000402108400028F9D01A205C49087000BFDF
:100170005A4880790C2108400C28F9D1584859492F
:100180000860704770B555480078C02108400028C5
:1001900068D1524840794021084000284ED14F484C
:1001A000007804210840002815D14F4C4B480078B6
:1001B00038210840C10801208840C5B229462046A0
:1001C00000F0EFF804464548407830210840002808
:1001D00003D0640901E00124E4034048C078E02131
:1001E0000840C106C90E002926D14011030001F0C4
:1001F000C3F80805090D1115191D20230520C0019C
:1002000044431AE005200002444316E00F20C001D9
:10021000444312E00520400244430EE0B720800032
:1002200044430AE0B720C000444306E02F4844435B
:1002300003E02F48444300E000BF38E0274800793E
:10024000C006C00E451C2946274800F0AAF80446FF
:1002500022484079C006C00E05461835204668433E
:10026000044624E01D480078C0210840402815D1EC
:100270001A484078C007C00F002802D10124E403C7
:1002800015E01648007A0E221040420801209040E6
:100290000146184800F085F8044608E00F48007849
:1002A000C0210840802801D10F4C00E070BD0748F4
:1002B00040304068000F411C204600F072F80949A8
:1002C000086000BFF2E770470081044000800440EE
:1002D00040900440FFF8FFFE0050064000400640FA
:1002E000006CDC0200F0FF1F00127A00950800008D
:1002F000710B000000093D00044880470448004796
:10030000FEE7FEE7FEE7FEE7FEE7FEE7D5000000BA
:10031000C10000001348806B0121490308431149C3
:1003200088630020104908610E48C06B49050843E6
:100330000C49C8631C200D4988600846006A0121E9
:1003400008430A490862704700200849086000BF56
:1003500006480068802108408028F9D103480069D8
:1003600080B270470080044040D0044000B0034099
:1003700070B504460D46E0B200F07DFE204670BD2B
:1003800010B5044600F05CFE10BD01460020C043DD
:10039000704710B50446E0B200F06DFE10BD00BF1E
:1003A000FEE730B50B46014600202022012409E07B
:1003B0000D46D5409D4205D31D469540491B254617
:1003C000954040191546521E002DF1DC30BD70B528
:1003D00000242546002801DA01244042002901DAE0
:1003E00001254942FFF7DDFFAC4200D04042002C1E
:1003F00000D0494270BD70470000000000000000BE
:10040000FFFFFFFFFFFFFFFFFFFFFFFFFEFFFFFFFD
:100410000146002005E0002000E0401CFE4A90421A
:10042000FBD30A46491E002AF5D17047F8B50746A6
:10043000FA4880790C2108408008022811D1F74839
:1004400080791021084000280BD1F44880792021C0
:100450000840002805D0F1484078022108400028D3
:1004600001D00720F8BD002408E0EC488079402145
:100470000840002800D005E0601C04B27D20000187
:100480008442F2DB00BFE548807940210840002823
:1004900001D14420E6E7E1480079C006C00E451CC2
:1004A000DE484079C006C00E06461836DB480078A4
:1004B000C0218843D9490870002409E0D7488079D1
:1004C0000C2108408008032800D105E0601C04B21C
:1004D0007D2000018442F1DB00BFD04880790C21EF
:1004E00008408008032801D01B20BBE72946384676
:1004F000FFF76DFF7043B5E7C84880790C210840CD
:10050000800800280DD1C5488079102108400028B6
:1005100007D0C248807920210840002801D103205B
:100520007047BE4880790C210840800803280DD10F
:10053000BA48807910210840002807D1B74880794F
:1005400020210840002801D00820E9E7B34880793D
:100550000C2108408008022813D1B048807910216E
:10056000084000280DD1AD4880792021084000289E
:1005700007D0AA48407802210840002801D107206E
:10058000CEE7A64880790C2108408008022813D1C4
:10059000A24880791021084000280DD19F48807919
:1005A00020210840002807D19C48407802210840BB
:1005B000002801D10520B3E7984880790C21084034
:1005C000800802280DD19548807910210840002824
:1005D00007D19248407802210840002801D0062027
:1005E0009EE78E4880790C2108408008012813D1AD
:1005F0008A4880791021084000280DD087488079EA
:1006000020210840002807D1844840780221084072
:10061000002801D0012083E7804880790C21084020
:100620008008012813D17D488079102108400028D6
:100630000DD07A48807920210840002807D17748DA
:10064000407802210840002801D1022068E7734861
:1006500080790C210840800800280DD16F488079EE
:1006600010210840002807D16C48807920210840DB
:10067000002801D1042053E7002051E700281BD0B7
:100680006749496B012292021143654A5163511532
:10069000644A51609160624949680122920611439F
:1006A0005F4A5160072109025E4A1160D160FF2153
:1006B00013315D4A91610BE05949496B0122920265
:1006C0009143574A51630021564A5160916011612C
:1006D000704708B508205549087008464078C0089A
:1006E000C000487008464078032108434F494870CD
:1006F0000846407800900098401C00904C480069E3
:10070000042108434A49086130BF08BD002806D0CB
:100710004249497920221143404A517105E03F493D
:100720004979202291433D4A5171704738B50020E4
:10073000FFF7ECFF0020FFF7A1FFFFF7CAFF012042
:10074000FFF79CFFFFF7D8FE0446072C0CD1394871
:10075000FFF76CFE05460120082300221146009099
:10076000E120400200F041FB38BDF8B504460E46DA
:10077000174631480578E007C00F002802D02FA0A7
:1007800000F0EAFD02202040002802D03BA000F04B
:10079000E3FD04202040002802D046A000F0DCFD4C
:1007A00008202040002802D050A000F0D5FD2248AB
:1007B0000570457810202040002802D059A000F094
:1007C000CBFD2020204000280CD0B0000C21084098
:1007D0000543634800F0C0FD1748407920210843D5
:1007E000154948714020204000280CD030013021AC
:1007F000084005435B4800F0AFFD0F4840794021B9
:1008000008430D49487180202040002802D0B001E3
:10081000C021A9E0B3E000008813000000400640BA
:10082000008004400090044000B0044000E0074015
:1008300000ED00E000127A0000C007400A20496E77
:1008400076616C6964204C4C575520636F6E666905
:1008500067757265642070696E20505445312F535E
:100860004349315F52582F493243315F53434C2043
:100870002F535049315F53494E0000000A20496E02
:1008800076616C6964204C4C575520636F6E6669C5
:1008900067757265642070696E20505445322F531D
:1008A0005049315F53434B2F53444843305F4443D7
:1008B0004C4B00000A20496E76616C6964204C4CF8
:1008C000575520636F6E666967757265642070693D
:1008D0006E20505445342F535049315F50435330AC
:1008E0002F53444843305F44330000000A20496ED0
:1008F00076616C6964204C4C575520636F6E666955
:1009000067757265642070696E20505441342F46BB
:10091000544D305F4348312F4E4D492F455A505F5B
:10092000435300000A20496E76616C6964204C4C88
:10093000575520636F6E66696775726564207069CC
:100940006E2050544131332F46544D315F4348316E
:10095000202F46544D315F51445F50484200000003
:10096000A81A00008419000008400543D24800F08E
:10097000F3FCD248407980210843D0494871CF48E0
:10098000457085788015204000280BD0B007800F77
:100990000543CB4800F0E0FCC848807901210843BA
:1009A000C649887101204002204000280CD0B000C8
:1009B0000C2108400543C34800F0CEFCBF488079B5
:1009C00002210843BD49887101208002204000288F
:1009D0000CD03001302108400543BB4800F0BCFC7E
:1009E000B648807904210843B44988710120C002C7
:1009F000204000280CD0B001C02108400543B34876
:100A000000F0AAFCAD48807908210843AB49887101
:100A1000AA488570C57801200003204000280BD02B
:100A2000B007800F0543AA4800F096FCA3488079E0
:100A300010210843A149887101204003204000286B
:100A40000CD0B0000C2108400543A24800F084FC03
:100A50009A488079202108439849887101208003B1
:100A6000204000280CD030013021084005439A482E
:100A700000F072FC91488079402108438F498871C9
:100A80000120C003204000280CD0B001C021084044
:100A90000543924800F060FC884880798021084333
:100AA000864988718548C570002F03D1002083498D
:100AB000087109E081480079384380490871084687
:100AC000017987A000F048FCF8BD10B52A209349B1
:100AD0000870072000F0E9F8012202210020FFF74A
:100AE00044FE10BD08B500248D48806B1F214902CB
:100AF00008438B498863FFF745FB8A48007820212B
:100B000008438849087001200823002211460090FC
:100B1000E120400200F069F983A000F01DFCFFF71E
:100B2000F9FBFFF7D2FF0321FA2000F023FB1C2082
:100B300000F0BBF808E0FFF707FC0446214680A060
:100B400000F00AFCFFF7F2FDF5E75C484079202150
:100B50000840002804D05948407908435749487153
:100B60005648407940210840002804D05348407935
:100B70000843524948715148407980210840002873
:100B800004D04E48407908434C4948714B4880791D
:100B9000C007C00F002805D04848807901210843CC
:100BA000464988714548807902210840002804D0D0
:100BB000424880790843414988714048807904213E
:100BC0000840002804D03D48807908433B4988719B
:100BD0003A48807908210840002804D037488079B5
:100BE000084336498871354880791021084000282B
:100BF00004D0324880790843304988712F48807981
:100C000020210840002804D02C48807908432B4933
:100C100088712A48807940210840002804D027485C
:100C200080790843254988712448807980210840CB
:100C3000002804D0214880790843204988711F4842
:100C4000C079C007C00F00280DD03548806B012146
:100C50000843334988633E480068802108433C4983
:100C60000860C12008601548007A802108400028EB
:100C700004D01248007A0843104908720F48407A9D
:100C800080210840002804D00C48407A08430B49D2
:100C9000487230480068802108432E490860704738
:100CA000FF2113312C4A91617047C206D20E0121F7
:100CB00091402A4A116070471C1A000000C007408A
:100CC000601A00003C190000681800002418000099
:100CD000AC180000F8180000FC1A0000CC19000045
:100CE0000A0D204C4C575520636F6E66696775720C
:100CF0006564206D6F64756C6573206173204C4C66
:100D000057552077616B65757020736F75726365D9
:100D100073203D203078253032582C0000E0074009
:100D200000800440005006400D0A204144432054F6
:100D3000657374205374617274200D0A0000000002
:100D40000D0A20566F75743D2564200D0A000000C1
:100D50000000044080E200E000B0044000E100E058
:100D600010B5002819DAED4A03071B0F083B9B0852
:100D70009B00D2588307DC0EFF23A3409A438B07C6
:100D80001B0E8407E40EA3401A43E44B0407240F10
:100D9000083CA408A4001A5118E0E14A03231B02EE
:100DA000D21883089B00D2588307DC0EFF23A34090
:100DB0009A438B071B0E8407E40EA3401A43D84BBB
:100DC000032424021B198408A4001A5110BD10B575
:100DD0000246D448C3780C24A343C370D3008C00CC
:100DE0002343C4782343C37010BDFFB581B00D46C3
:100DF00016461F46CB4C00200090CB48406801218E
:100E000009040843C849486008464068012189062A
:100E10000843C54948600846406B09150843C24964
:100E2000486300210846FFF7D2FF6015BF494860BC
:100E30008860A07813218843A070A07A202188437D
:100E4000A0720A2F09D1A078690031430843A0702D
:100E5000A07A20210843A07208E038460838000133
:100E6000690008433043A1780843A070019801014C
:100E7000AF480068FFF795FA80B200901F21090281
:100E8000009808400012207000986070207820219F
:100E90008843207021780A98401E40010143217048
:100EA000E078F0218843E07000BF207920210840DD
:100EB000002802D0E0790028F7D101210846FFF789
:100EC00086FF05B0F0BD10B502469A48C3780C24E1
:100ED000A343C370D3008C002343C4782343C3705F
:100EE00010BDFFB581B005460E461746914C002057
:100EF00000908D48406BE11408438B494863002102
:100F00000846FFF7E0FFA07813218843A0700498FB
:100F100008380001710008433843A1780843A070E5
:100F2000290183480068FFF73CFA80B200901F2136
:100F30000902009808400012207000986070207824
:100F400020218843207021780A98401E40010143E7
:100F50002170E078F0218843E07000BF20792021E3
:100F60000840002802D0E0790028F7D10121084686
:100F7000FFF7A9FF0D2000F0CAF803210D20FFF7AD
:100F8000EFFE05B0F0BD10B502466B48C3780C24E7
:100F9000A343C370D3008C002343C4782343C3709E
:100FA00010BDFFB581B005460E461746624C0020C5
:100FB00000905D48406B0121090308435A4948638A
:100FC00000210846FFF7DFFFA07813218843A070B7
:100FD000049808380001710008433843A178084399
:100FE000A070290152480068FFF7DBF980B2009039
:100FF0001F210902009808400012207000986070BC
:10100000207820218843207021780A98401E4001D2
:1010100001432170E078F0218843E07000BF20791F
:1010200020210840002802D0E0790028F7D10E20C6
:1010300000F06DF803210E20FFF792FE05B0F0BD21
:10104000384900BF0879202210400028FAD0C8791A
:101050007047384900BF0879202210400028FAD094
:10106000C8797047334900BF087920221040002812
:10107000FAD0C87970472B4900BF0A7980231A40FB
:10108000002AFAD0C87170472A4900BF0A79802324
:101090001A40002AFAD0C8717047274900BF0A7960
:1010A00080231A40002AFAD0C871704710B5044650
:1010B00003E02078641CFFF7DEFF20780028F8D1D9
:1010C00010BD10B5044603E02078641CFFF7DCFF78
:1010D00020780028F8D110BD10B5044603E0207830
:1010E000641CFFF7D1FF20780028F8D110BD10B59F
:1010F0000C4C02E0E079FFF7BEFF20792021084088
:101100000028F7D110BD0B4870470B487047C20646
:10111000D20E01219140024A116070471CED00E09F
:1011200000E100E000A00640008004400090044080
:1011300004F0FF1F00B0064000C006402848806B46
:10114000012108432649886326480068C0210843D6
:101150002449086008464068012108432149486045
:10116000FF20F530886008460068012108431D49CA
:101170000860704770B505460C461948806B012120
:10118000084317498863002C02D117A000F0E4F847
:10119000012C02D11FA000F0DFF8022C02D127A001
:1011A00000F0DAF8032C02D12EA000F0D5F8A00749
:1011B000800F282108430B494860A8B28860C020EE
:1011C000086008460068012108430649086070BDB0
:1011D0000448006880210843024908607047000005
:1011E00000800440000004400A0D204C50544D5231
:1011F00020436C6F636B20736F7572636520697336
:1012000020746865204D43474952434C4B200A0DDA
:10121000000000000A0D204C50544D5220436C6FCA
:10122000636B20736F7572636520697320746865E2
:10123000204C504F434C4B200A0D00000A0D204C0F
:1012400050544D5220436C6F636B20736F75726303
:101250006520697320746865204552434C4B3332D6
:10126000200A0D000A0D204C50544D5220436C6F43
:10127000636B20736F757263652069732074686592
:10128000204F53434552434C4B200A0D00000000B1
:10129000F0B51FB40646002082B0054640240191F7
:1012A00000901BE0019922460F46304600F042F8BC
:1012B000049A059B801A994110D31046194622467C
:1012C00000F028F8361A8F410197224601200021AC
:1012D000009F00F01FF838184D4100902046641E12
:1012E0000028DFDC019B00982946324607B0F0BD9C
:1012F000064C0125064E05E0E36807CC2B430C3C69
:1013000098471034B442F7D3FEF7DEFE481B0000C6
:10131000681B000010B5202A04DB0146203A9140EA
:10132000002010BD914020239C1A0346E34019433E
:10133000904010BD10B5202A04DB0846203AD0406A
:10134000002110BD0B46D340D0402024A21A91406A
:101350000843194610BD00000FB410B503A9044B93
:10136000044A029800F024F810BC08BC04B01847E6
:101370007103000008F0FF1F30B47446641E257826
:10138000641CAB4204D3635D5B00E31830BC1847B8
:101390001D46F8E702E008C8121F08C1002AFAD16A
:1013A0007047002001E001C1121F002AFBD17047E5
:1013B000FFB591B00F460546002606E025280AD065
:1013C000149A139990476D1C761C28780028F5D143
:1013D000304615B0F0BD002400940121F34A029478
:1013E00000E004436D1C2B780846203B98401042D7
:1013F000F7D128782A280ED0022128780246303AE0
:10140000092A15D8009A0A235A43303A80180C4307
:101410006D1C0090F1E701CF0090002805DA012053
:1014200040030443009840420090022004436D1C96
:1014300028782E2815D10420044368786D1C2A28AA
:101440000AD101CF6D1C02900BE002990A22514390
:10145000303940186D1C029028780146303909292E
:10146000F3D928786C2810D006DC4C281AD06828CC
:101470000ED06A2817D104E0742813D07A2812D12C
:1014800010E00120400504430CE00121090501E0C2
:10149000032109050C436978814203D1012000052D
:1014A00024186D1C6D1C287803906E281ED00CDC4F
:1014B000632831D004DC00288AD0582811D1B2E04A
:1014C00064287BD069280CD178E073282DD004DC07
:1014D0006F2870D0702804D1A7E075286CD07828C8
:1014E0006BD0149A13999047761C62E06002400F0B
:1014F000022807D003280AD0042838680AD00660DA
:101500003F1D56E03868F11706604160F8E738681B
:101510000680F5E70670F3E738786946087400201E
:10152000487404A80390012003E038680390002069
:10153000C0433F1D61070FD5002101E00199491CFF
:10154000029A0191914213DA8142F7DB019A0399E1
:10155000895C0029F2D10BE0002101E00199491CCE
:1015600001918142FADB019A0399895C0029F5D146
:1015700001990098139A401A00902146149B00F09C
:101580003BF901998019461807E003980399007800
:10159000491C0391149A139990470198401E019099
:1015A000401CF2D12146149B139A009800F014F9C4
:1015B00086196D1C09E741E033E034E00A20002180
:1015C000049005916002410F022905D001CFC21796
:1015D0009446032905D007E0FF1DFF08FF0003CF55
:1015E00006E000B2C2179446042902D140B2C117E6
:1015F0008C4600226146944506DA0A4600214042A4
:1016000091418C462D2102E0210504D52B216A460B
:101610001176012103E0E10701D02021F7E70191D4
:1016200054E00A200BE0102009E010200490002173
:101630000420044308200591029003E008200021C3
:10164000059104906002410F022905D001CF0022CC
:101650009446032906D006E0FF1DFF08FF0003CFD4
:101660008C4603E080B2042900D1C0B20021019170
:1016700021072BD50399702906D0049A1021059BC8
:101680004A401A4305D00EE040216A4611760121F6
:1016900008E06146014306D030216A46117603997D
:1016A000517602210191049A0821059B4A401A4370
:1016B0000CD16146014301D1610707D530216A464B
:1016C0001176012101910299491E0291039958292D
:1016D00004D037A103910FA90F910DE039A1F9E7CB
:1016E0006146059B049AFFF7D3FD039B8C469B5CE8
:1016F0000F9A521E0F92137061460143F0D10F985A
:1017000007A9081A20300390600704D501200004BF
:101710008443029801E0012002900399884201DD90
:10172000401A00E000204118029001980918009822
:10173000401A0090E00306D42146149B139A0098A7
:1017400000F05AF886190020049008E006A9085C09
:10175000149A139990470498401C761C04900199A0
:101760008842F3DBE0030CD52146149B139A0098C2
:1017700000F042F8861904E0149A3020139990473B
:10178000761C0299481E02900029F5DC08E00F98AB
:101790000F990078491C0F91149A13999047761C61
:1017A0000399481E03900029F1DCFBE6092801009B
:1017B00030313233343536373839616263646566C7
:1017C0000000000030313233343536373839414289
:1017D0004344454600000000F8B5044600251E4677
:1017E0001746880404D405E039462020B0476D1C14
:1017F000641EF9D52846F8BDFFB50446002581B022
:101800001E46C80301D5302700E02027880404D5F0
:1018100005E038460399B0476D1C641EF9D528468B
:1018200005B0F0BD0A204C4C575520636F6E6669B9
:1018300067757265642070696E732050544331314E
:101840002F493253305F5258443120746F20626503
:1018500020616E204C4C57552077616B6575702068
:10186000736F7572636520000A204C4C57552063D6
:101870006F6E666967757265642070696E7320505B
:101880005443362F504442305F45585452472074D9
:101890006F20626520616E204C4C57552077616B3C
:1018A00065757020736F7572636520000A204C4C5B
:1018B000575520636F6E666967757265642070693D
:1018C0006E7320505444302F535049305F5043536F
:1018D000302F534349325F52545320746F20626556
:1018E00020616E204C4C57552077616B65757020D8
:1018F000736F7572636520000A204C4C5755206346
:101900006F6E666967757265642070696E732050CA
:101910005444322F534349325F525820746F20622F
:101920006520616E204C4C57552077616B65757052
:1019300020736F7572636520000000000A204C4C14
:10194000575520636F6E66696775726564207069AC
:101950006E7320505443352F535049305F53434BDF
:101960002F493253305F52584430206973204C4C19
:1019700057552077616B65757020736F757263655D
:10198000200000000A204C4C575520636F6E66699A
:1019900067757265642070696E7320505443312FEF
:1019A000534349315F5254532F46544D305F43489F
:1019B00030206973204C4C57552077616B657570EA
:1019C00020736F7572636520000000000A204C4C84
:1019D000575520636F6E666967757265642070691C
:1019E0006E7320505444362F534349305F52582F62
:1019F00046544D305F4348362F46544D305F464C79
:101A00005430206973204C4C57552077616B6575B5
:101A10007020736F75726365200000000A204C4CC3
:101A2000575520636F6E66696775726564207069CB
:101A30006E7320505443332F534349315F52582F14
:101A400046544D305F434832206973204C4C575503
:101A50002077616B65757020736F75726365200008
:101A60000A204C4C575520636F6E66696775726526
:101A7000642070696E7320505443342F53504930A2
:101A80005F504353302F46544D305F4348332069F5
:101A900073204C4C57552077616B65757020736FC0
:101AA00075726365200000000A204C4C5755206376
:101AB0006F6E666967757265642070696E73205019
:101AC0005442302F493243305F53434C2F46544DDC
:101AD000315F4348302F46544D315F51445F504889
:101AE00041206973204C4C57552077616B657570A8
:101AF00020736F7572636520000000000A204C4C53
:101B0000575520636F6E66696775726564207069EA
:101B10006E7320505444342F534349305F52545312
:101B20002F46544D305F4348342F45574D5F494E43
:101B3000206973204C4C57552077616B6575702078
:101B4000736F757263652000681B000000F0FF1F53
:101B50001000000094130000781B000010F0FF1F1D
:101B600000040000A2130000006CDC0200366E01CD
:081B700000000000000000006D
:04000005000000C136
:00000001FF
